:100000000C947B000C94A3000C94A3000C94A3000C
:100010000C94A3000C94A3000C94A3000C94A300D4
:100020000C94A3000C94A3000C94A3000C94A300C4
:100030000C94A3000C94A3000C94A3000C94A300B4
:100040000C94D1020C94A3000C9441030C941B0358
:100050000C94A3000C94A3000C94A3000C94A30094
:100060000C94A3000C94A3004E414E494E495459A0
:10007000494E46CDCCCC3D0AD7233C17B7D1387773
:10008000CC2B329595E6241FB14F0A000020410089
:1000900000C84200401C4620BCBE4CCA1B0E5AAED3
:1000A000C59D740000000800020100000304070061
:1000B0000000000000000000000000250028002BC8
:1000C0000000000000240027002A000404040404A7
:1000D00004040402020202020203030303030301F5
:1000E00002040810204080010204081020010204CC
:1000F00008102000730311241FBECFEFD8E0DEBF2D
:10010000CDBF22E0AAE6B1E001C01D92A833B2073C
:10011000E1F711E0A0E0B1E0E2ECF1E102C005900E
:100120000D92AA36B107D9F710E0CBE7D0E004C0B2
:100130002197FE010E94D408CA37D107C9F70E944F
:10014000A0030C94DF080C94000090E0FC01E15245
:10015000FF4F2491FC01E553FF4F8491882399F0D0
:1001600090E0880F991FFC01EF53FF4FA591B491C8
:10017000FC01E954FF4F859194918FB7F894EC916D
:10018000E22BEC938FBF089590E0FC01ED55FF4FFB
:100190003491FC01E152FF4F2491FC01E553FF4FE4
:1001A000E491EE2309F43BC0332339F1333091F06D
:1001B00038F43130A9F0323001F584B58F7D12C0AA
:1001C000373091F03830A1F03430B9F480918000AC
:1001D0008F7D03C0809180008F77809380000DC059
:1001E00084B58F7784BD09C08091B0008F7703C03C
:1001F0008091B0008F7D8093B000F0E0EE0FFF1F84
:10020000E954FF4FA591B4918FB7F894EC91611127
:1002100003C020952E2301C02E2B2C938FBF089551
:10022000CF93C82F61E00E94C40060E08C2FCF9173
:100230000C94C4003FB7F89480918401909185019B
:10024000A0918601B091870126B5A89B05C02F3FDC
:1002500019F00196A11DB11D3FBFBA2FA92F982FEC
:100260008827820F911DA11DB11DBC01CD0142E067
:10027000660F771F881F991F4A95D1F708958F92AF
:100280009F92AF92BF92CF92DF92EF92FF926B015B
:100290007C010E941A014B015C01C114D104E104EC
:1002A000F104F1F00E941A01DC01CB0188199909CF
:1002B000AA09BB09883E9340A105B10570F321E06E
:1002C000C21AD108E108F10888EE880E83E0981E72
:1002D000A11CB11CC114D104E104F10419F7DDCF54
:1002E000FF90EF90DF90CF90BF90AF909F908F9056
:1002F0000895CF92DF92EF92FF920F931F93CF93C7
:10030000DF936C017A018B01C0E0D0E0CE15DF05F0
:1003100089F0D8016D918D01D601ED91FC9101908C
:10032000F081E02DC6010995892B11F47E0102C0F0
:100330002196ECCFC701DF91CF911F910F91FF90D4
:10034000EF90DF90CF900895089580E090E00895B9
:10035000FC01538D448D252F30E0842F90E0821BCB
:10036000930B541710F0CF96089501970895FC0150
:10037000918D828D981761F0828DDF01A80FB11DDC
:100380005D968C91928D9F5F9F73928F90E0089500
:100390008FEF9FEF0895FC01918D828D981731F0BA
:1003A000828DE80FF11D858D90E008958FEF9FEF0E
:1003B0000895FC01918D228D892F90E0805C9F4FE4
:1003C000821B91098F739927089588E891E00E9414
:1003D000D90121E0892B09F420E0822F0895FC0146
:1003E000848DDF01A80FB11DA35ABF4F2C91848DBE
:1003F00090E001968F739927848FA689B7892C93F3
:10040000A089B1898C9180648C93938D848D98138D
:1004100006C00288F389E02D80818F7D8083089556
:10042000EF92FF920F931F93CF93DF93EC0181E044
:10043000888F9B8D8C8D981305C0E889F989808100
:1004400085FD24C0F62E0B8D10E00F5F1F4F0F733C
:100450001127E02E8C8DE8120CC00FB607FCFACFE6
:10046000E889F989808185FFF5CFCE010E94EF01EF
:10047000F1CF8B8DFE01E80FF11DE35AFF4FF082A3
:100480000B8FEA89FB898081806207C0EE89FF8932
:100490006083E889F98980818064808381E090E0CD
:1004A000DF91CF911F910F91FF90EF900895CF931F
:1004B000DF93EC01888D8823C9F0EA89FB8980816C
:1004C00085FD05C0A889B9898C9186FD0FC00FB63E
:1004D00007FCF5CF808185FFF2CFA889B9898C917F
:1004E00085FFEDCFCE010E94EF01E7CFDF91CF91E5
:1004F000089580E090E0892B29F00E94E5018111A8
:100500000C9400000895EF92FF920F931F93CF93E6
:10051000DF93E82EF62EC0E0D0E0042F10E0980123
:100520000C2E02C0359527950A94E2F7B901617047
:1005300077278E2D0E94C40061E08F2D0E94C40099
:1005400060E08F2D0E94C4002196C830D10539F794
:10055000DF91CF911F910F91FF90EF900895009739
:1005600069F0FC0101900020E9F73197AF01481BC9
:10057000590BBC0188E891E00C94790180E090E08F
:100580000895CF93DF930E94AF02EC0183E191E0E5
:100590000E94AF028C0F9D1FDF91CF9108950E94A2
:1005A000DA081F920F920FB60F9211242F933F93E8
:1005B0008F939F93AF93BF9380918001909181011E
:1005C000A0918201B091830130917F0123E0230F3C
:1005D0002D3720F40196A11DB11D05C026E8230F7B
:1005E0000296A11DB11D20937F01809380019093FD
:1005F0008101A0938201B093830180918401909145
:100600008501A0918601B09187010196A11DB11DC0
:100610008093840190938501A0938601B093870114
:10062000BF91AF919F918F913F912F910F900FBEEE
:100630000F901F9018951F920F920FB60F921124D2
:100640002F933F934F935F936F937F938F939F93DA
:10065000AF93BF93EF93FF9388E891E00E94EF017F
:10066000FF91EF91BF91AF919F918F917F916F918A
:100670005F914F913F912F910F900FBE0F901F9060
:1006800018951F920F920FB60F9211242F938F93EC
:100690009F93EF93FF93E0919801F09199018081EE
:1006A000E0919E01F0919F0182FD12C090818091A6
:1006B000A1018F5F8F732091A201821751F0E09109
:1006C000A101F0E0E857FE4F958F8093A10101C092
:1006D0008081FF91EF919F918F912F910F900FBE8D
:1006E0000F901F901895E8E8F1E01382128288EECF
:1006F00093E0A0E0B0E084839583A683B78385E090
:1007000091E09183808385EC90E09587848784ECE9
:1007100090E09787868780EC90E0918B808B81ECCE
:1007200090E0938B828B82EC90E0958B848B86ECAF
:1007300090E0978B868B118E128E138E148E0895F7
:10074000789484B5826084BD84B5816084BD85B5AC
:10075000826085BD85B5816085BD80916E008160B8
:1007600080936E001092810080918100826080935E
:100770008100809181008160809381008091800060
:100780008160809380008091B10084608093B1008B
:100790008091B00081608093B00080917A00846085
:1007A00080937A0080917A00826080937A008091B1
:1007B0007A00816080937A0080917A0080688093CB
:1007C0007A001092C1008DE00E94A50060E08DE0EB
:1007D0000E94C400E0919801F091990182E0808329
:1007E000E0919401F09195011082E0919601F091D1
:1007F00097018FEC80831092A001E0919C01F09111
:100800009D0186E08083E0919A01F0919B018081B7
:1008100080618083E0919A01F0919B0180818860E2
:100820008083E0919A01F0919B01808180688083B0
:10083000E0919A01F0919B0180818F7D808386E118
:1008400091E00E94C10288E090E09093260280939C
:10085000250289E090E090932802809327028AE0A5
:1008600090E090932A02809329028BE090E090938D
:100870002C0280932B0210922D0210922E021092C5
:100880002F02109230021092310238E2C32E3BE662
:10089000D32E3EEEE32E3CE4F32EC0923202D092F1
:1008A0003302E0923402F092350288E00E94A50003
:1008B000809127020E94A500809129020E94A50034
:1008C00080912B020E94A50080912B0290912C0216
:1008D0000E94100180912502909126020E94100131
:1008E00080912702909128020E941001C09232024A
:1008F000D0923302E0923402F09235020AE611E01F
:1009000045E1F42E80910001882331F080E391E0ED
:100910000E94C1021092000188E891E00E94D90172
:10092000892B09F48BC060E470E080E090E00E94C5
:100930003F01F8018F2D11928A95E9F7C0E088E810
:1009400091E00E94D901892B79F088E891E00E941A
:10095000B7018032A4F3C43190F7EC2FF0E0E659F0
:10096000FE4F8083CF5FEBCFEC2FF0E0E659FE4FD8
:10097000108261E08DE00E94C4008AE691E00E944E
:10098000390520E030E040E85FE40E942107209133
:1009900032023091330240913402509135020E946C
:1009A00033080E94A50860932D0270932E02809355
:1009B0002F029093300210923102C4E0D0E04091B7
:1009C0002D0260912502809129020E94830280916C
:1009D0002D0290912E02A0912F02B0913002892F0A
:1009E0009A2FAB2FBB2780932D0290932E02A093BA
:1009F0002F02B0933002219711F74091310260919C
:100A00002502809129020E94830280912702909101
:100A100028020E9410018FE491E00E94AF028AE652
:100A200091E00E94AF0285E691E00E94C10281E060
:100A30008093000160E08DE00E94C400809100017D
:100A4000811114C068EC70E080E090E00E943F01EA
:100A500061E08DE00E94C40068EC70E080E090E00E
:100A60000E943F0160E08DE00E94C4000E94790274
:100A700049CF662777270C943D05A0E0B0E0E3E47A
:100A8000F5E00C94F107EC017B016115710519F09B
:100A9000DB018D939C938E010F5F1F4F7880872D14
:100AA00090E00E949A06892B11F0E801F4CFBDE294
:100AB0007B1205C00F5F1F4F7980C1E008C0EBE2D9
:100AC0007E1204C08E010E5F1F4F7980C0E0680166
:100AD000F1E0CF1AD10843E050E060E770E0C601D2
:100AE0000E94A306892BF1F4680122E0C20ED11CFA
:100AF00045E050E06BE670E0C6010E94A306892B3A
:100B000021F4680187E0C80ED11CE114F10419F04A
:100B1000D701CD92DC92C111FFC060E070E080E8A7
:100B20009FE703C143E050E068E670E0C6010E9421
:100B3000A306892B51F4E114F10409F4F2C00E5F0D
:100B40001F4FF70111830083ECC0680160E070E083
:100B5000CB0100E010E0F601D0EDD70DDA3058F50A
:100B60002C2F2260622E2C2F2870C2FF05C021116D
:100B700028C00F5F1F4F25C0222311F0015011091B
:100B8000A5E0B0E09B01AC010E94E2074B015C01D3
:100B9000880C991CAA1CBB1CC501B4016D0F711DEA
:100BA000811D911D6839A9E97A078A07A9E19A0789
:100BB00040F0C66005C0DE3F51F4C3FD44C0C860CC
:100BC0006C2EBFEFCB1ADB0A7080C62DC4CF2D2F41
:100BD0002F7D2531C1F540814D3211F4C06106C031
:100BE0004B3221F0319621E030E006C03296D6013A
:100BF00011964C9122E030E0A0EDA40FAA3018F03D
:100C0000E21BF30B20C040E050E04038BCE05B0743
:100C10005CF49A01220F331F220F331F420F531F20
:100C2000440F551F4A0F511D3196DF0111972C912A
:100C3000A0EDA20FAA3048F3C4FF03C0519541951F
:100C40005109040F151FC1FF07C0E114F10421F081
:100C50003197D701ED93FC930E94C006C370C33057
:100C600019F06B017C0106C06B017C01F7FAF0946E
:100C7000F7F8F09420E030E0A901C701B6010E9426
:100C8000BB06882309F445C017FF06C011950195DE
:100C90001109C7E8D0E002C0CFE9D0E05E01B8E1B9
:100CA000AB1AB1084601BE2DAF2D90E2E92EF12C12
:100CB0000E151F0584F0FE01259135914591549143
:100CC000B4018B2F9A2F0E9421074B01B82FA92F17
:100CD0000E191F09EDCF2497F594E794CA15DB058B
:100CE00039F76401EB2EFA2E8E2D880F8F2D881F79
:100CF0008F3F49F020E030E0A901C701B6010E9412
:100D0000BB06811106C082E290E090933702809387
:100D10003602C701B60109C060E070E080E89FEFCD
:100D200004C060E070E080EC9FE7CDB7DEB7EEE096
:100D30000C940D0891110C948E07803219F0895093
:100D40008550C8F70895FB01DC014150504088F000
:100D50008D9181341CF08B350CF4805E659161348B
:100D60001CF06B350CF4605E861B611171F3990BFE
:100D70000895881BFCCF0E94FD0608F481E00895C9
:100D8000E89409C097FB3EF4909580957095619525
:100D90007F4F8F4F9F4F9923A9F0F92F96E9BB27DB
:100DA0009395F695879577956795B795F111F8CF57
:100DB000FAF4BB0F11F460FF1BC06F5F7F4F8F4FC2
:100DC0009F4F16C0882311F096E911C0772321F0B8
:100DD0009EE8872F762F05C0662371F096E8862F50
:100DE00070E060E02AF09A95660F771F881FDAF7A7
:100DF000880F9695879597F90895990F0008550FD4
:100E0000AA0BE0E8FEEF16161706E807F907C0F090
:100E100012161306E407F50798F0621B730B840B98
:100E2000950B39F40A2661F0232B242B252B21F472
:100E300008950A2609F4A140A6958FEF811D811D12
:100E400008950E9434070C94A8070E949A0738F06E
:100E50000E94A10720F0952311F00C9491070C94A7
:100E6000970711240C94DC070E94B90770F3959F33
:100E7000C1F3950F50E0551F629FF001729FBB2791
:100E8000F00DB11D639FAA27F00DB11DAA1F649F2D
:100E90006627B00DA11D661F829F2227B00DA11DE0
:100EA000621F739FB00DA11D621F839FA00D611D66
:100EB000221F749F3327A00D611D231F849F600D87
:100EC000211D822F762F6A2F11249F5750409AF0B0
:100ED000F1F088234AF0EE0FFF1FBB1F661F771F3C
:100EE000881F91505040A9F79E3F510580F00C9407
:100EF00091070C94DC075F3FE4F3983ED4F38695AA
:100F000077956795B795F795E7959F5FC1F7FE2BA6
:100F1000880F911D9695879597F9089599278827A9
:100F2000089597F99F6780E870E060E008959FEF6B
:100F300080EC089500240A94161617061806090670
:100F4000089500240A94121613061406050608953F
:100F5000092E0394000C11F4882352F0BB0F40F4C7
:100F6000BF2B11F460FF04C06F5F7F4F8F4F9F4F07
:100F7000089557FD9058440F551F59F05F3F71F089
:100F80004795880F97FB991F61F09F3F79F08795F0
:100F90000895121613061406551FF2CF4695F1DF79
:100FA00008C0161617061806991FF1CF8695710509
:100FB000610508940895E894BB2766277727CB013D
:100FC00097F908950E942408A59F900DB49F900D55
:100FD000A49F800D911D112408952F923F924F924E
:100FE0005F926F927F928F929F92AF92BF92CF92B9
:100FF000DF92EF92FF920F931F93CF93DF93CDB7C2
:10100000DEB7CA1BDB0B0FB6F894DEBF0FBECDBF39
:1010100009942A88398848885F846E847D848C840A
:101020009B84AA84B984C884DF80EE80FD800C8113
:101030001B81AA81B981CE0FD11D0FB6F894DEBFF6
:101040000FBECDBFED010895A29FB001B39FC001B7
:10105000A39F700D811D1124911DB29F700D811DE4
:101060001124911D08950E9447080C94A8070E941E
:10107000A10758F00E949A0740F029F45F3F29F039
:101080000C94910751110C94DC070C9497070E9463
:10109000B90768F39923B1F3552391F3951B550BC9
:1010A000BB27AA2762177307840738F09F5F5F4F3B
:1010B000220F331F441FAA1FA9F335D00E2E3AF07A
:1010C000E0E832D091505040E695001CCAF72BD092
:1010D000FE2F29D0660F771F881FBB1F26173707E3
:1010E0004807AB07B0E809F0BB0B802DBF01FF2715
:1010F00093585F4F3AF09E3F510578F00C9491075A
:101100000C94DC075F3FE4F3983ED4F38695779523
:101110006795B795F7959F5FC9F7880F911D9695CD
:10112000879597F90895E1E0660F771F881FBB1F29
:10113000621773078407BA0720F0621B730B840BD6
:10114000BA0BEE1F88F7E09508950E94C10788F05A
:101150009F5798F0B92F9927B751B0F0E1F0660F7B
:10116000771F881F991F1AF0BA95C9F714C0B130BC
:1011700091F00E94DB07B1E008950C94DB07672F24
:10118000782F8827B85F39F0B93FCCF386957795EB
:101190006795B395D9F73EF49095809570956195D4
:1011A0007F4F8F4F9F4F0895EE0FFF1F0590F491D3
:1011B000E02D099481E090E0F8940C94DF08F89415
:0211C000FFCF5F
:1011C200010000000010027901A8015702D901B7FD
:1011D20001CB010D0A00205369676E616C204765DF
:1011E2006E657261746F72202D206A72666F2000C4
:1011F200506C6561736520656E74657220667265F8
:101202007175656E637920696E20487A3A200061B3
:10121200646A757374696E67206672657175656E4E
:0A12220063793A200020487A0000AA
:00000001FF
